:100000000C9446000C9465000C9465000C946500FB
:100010000C9465000C9465000C9465000C946500CC
:100020000C9465000C9465000C9465000C946500BC
:100030000C9465000C9465000C9465000C946500AC
:100040000C9465000C9465000C9465000C9465009C
:100050000C9465000C9465000C9465000C9465008C
:100060000C9465000C9465000C9465000C9465007C
:100070000C9465000C9465000C9465000C9465006C
:100080000C9465000C9465000C94650011241FBE4F
:10009000CFEFD0E1DEBFCDBF12E0A0E0B1E0EAE2F9
:1000A000FBE000E00BBF02C007900D92A431B10746
:1000B000D9F712E0A4E1B2E001C01D92A831B10766
:1000C000E1F70E94B5010C9493050C940000CF93C6
:1000D000DF93262F6AE070E00E947B046093170292
:1000E000809316028BE08093150220931402E8E1BE
:1000F000F2E0CBE0D1E0A291B0E0A050BF4F8C91F4
:1001000085BB8991809365008FE99FE00197F1F7A6
:1001100000C0000092E0E431F90769F7DF91CF9168
:1001200008951092610011BA87EE86B980E487B90C
:100130000895149AABE8B0E08C9182608C93EAE861
:10014000F0E08081886180838C9180628C938081D3
:100150008260808380E797E19093810080938000A4
:1001600080E287BB82E88FBD8AE18EBD88EB9BE091
:100170009BBD8ABD8FE19EE497BD86BD08958FEF3C
:1001800084BB8FE080936400089588EE93E09093A1
:10019000850080938400089588EE93E09BBD8ABD1E
:1001A000089588EB9BE090938500809384000895E8
:1001B00088EB9BE09BBD8ABD08952F923F924F92A2
:1001C0005F926F927F928F929F92AF92BF92CF92E7
:1001D000DF92EF92FF920F931F93CF93DF9380B143
:1001E00080B3C0E0D0E000E010E03CE3C32ED12CAF
:1001F00028EB422E2BE0522E98EE292E93E0392E3A
:10020000AA24BB245BC062E070E00E947B049C01D6
:10021000B901882777FD8095982F0E9431023B0114
:100220004C0120E030E040E05FE30E94010287FFE4
:1002300007C05092850040928400C1E0D0E00EC01B
:10024000C401B30120E030E040E05FE30E94D1014F
:10025000181624F45BBC4ABCC2E0D0E0F0FC0BC032
:10026000C130D10541F430928500209284000F5FA7
:100270001F4FC0E0D0E0E0FC09C0C230D10531F42E
:100280003BBC2ABC0F5F1F4FC0E0D0E0EE24FF2430
:1002900087E6682E80E0782EC601B801F301099543
:1002A0000894E11CF11C39EBE316F10489F708947A
:1002B000A11CB11C82E0A816B10441F0F0B0E0B27C
:1002C0000E942705209709F49ECFC8CF0894C10843
:1002D000D108C114D10409F093CF88EE93E0909334
:1002E0008500809384009BBD8ABD80E090E0B801CA
:1002F000F3010995FACFCF93DF93FC0168EE73E029
:100300000E947B042AE030E0B9010E947B046093E4
:100310001702CF0164E670E00E947B04B9010E94DD
:100320007B046093160210921502CF01B9010E945E
:100330007B0480931402E8E1F2E0CBE0D1E0A291EB
:10034000B0E0A050BF4F8C9185BB89918093650030
:100350008FE99FE00197F1F700C0000092E0E431DF
:10036000F90769F7DF91CF9108950E9491000E94EB
:1003700099000E94BF0088EE93E0909385008093DF
:1003800084009BBD8ABD8FEF99E6A8E18150904023
:10039000A040E1F700C000000E94DD0080E090E096
:1003A0000895A8E1B0E0E7EDF1E00C94AE046983B4
:1003B0007A838B839C832D833E834F8358878E0162
:1003C000075F1F4FCE010196B8010E94B90381E17A
:1003D000E82EF12CEC0EFD1ECE010596B7010E9411
:1003E000B9038985823040F08989823028F0C801BC
:1003F000B7010E94220401C08FEF6896E6E00C94DA
:10040000CA04A8E1B0E0E7E0F2E00C94AE0469832E
:100410007A838B839C832D833E834F8358878E0101
:10042000075F1F4FCE010196B8010E94B90381E119
:10043000E82EF12CEC0EFD1ECE010596B7010E94B0
:10044000B9038985823040F08989823028F0C8015B
:10045000B7010E94220401C081E06896E6E00C9496
:10046000CA04A8E0B0E0E7E3F2E00C94AE047B013C
:100470008C0183E08983D801C7018827B7FD839564
:100480009927AA27BB27282F8A83E114F1040105A5
:10049000110519F482E0898337C08EE190E09C83D6
:1004A0008B83222389F080E0E81680E0F80680E064
:1004B000080780E8180769F110950095F094E0941A
:1004C000E11CF11C011D111DED82FE820F831887B6
:1004D000C801B7010E9491029C01215030401216C0
:1004E000130694F4022E04C0EE0CFF1C001F111F13
:1004F0000A94D2F7ED82FE820F8318878EE190E096
:10050000821B930B9C838B83CE0101960E94EB028E
:1005100004C060E070E080E09FEC2896E6E00C9478
:10052000CA04AF92BF92CF92DF92EF92FF920F93E5
:100530001F937B018C0180E0E81680E0F80681E0E3
:10054000080780E0180758F4EFEFEE16F1040105F4
:10055000110509F090F480E090E0DC0117C0F0E0B4
:10056000EF16F0E0FF06F0E00F07F1E01F0750F490
:1005700080E190E0A0E0B0E009C088E090E0A0E079
:10058000B0E004C088E190E0A0E0B0E020E230E01C
:1005900040E050E0281B390B4A0B5B0B5701680108
:1005A00004C0D694C794B794A7948A95D2F7D6017D
:1005B000C501815F9E4FFC018081281B31094109E3
:1005C0005109C9011F910F91FF90EF90DF90CF90DB
:1005D000BF90AF900895EF92FF920F931F93CF9328
:1005E000DF93FC01248135814681578161818081BF
:1005F000823020F44061EFEFF0E0A3C0843009F4D2
:100600009BC0823009F492C0211531054105510586
:1006100009F48FC00280F381E02D8FEFE238F807F4
:100620000CF05AC0C2E8DFEFCE1BDF0BCA31D10598
:100630006CF579018A010C2E04C016950795F79484
:10064000E7940A94D2F781E090E0A0E0B0E00C2EAD
:1006500004C0880F991FAA1FBB1F0A94D2F70197E5
:10066000A109B10982239323A423B52321E030E01B
:1006700040E050E00097A105B10519F420E030E01A
:10068000A9012E293F29402B512B03C020E030E047
:10069000A901DA01C9018F779070A070B070803421
:1006A0009105A105B10539F427FF09C0205C3F4F32
:1006B0004F4F5F4F04C0215C3F4F4F4F5F4FE1E012
:1006C000F0E0203080E0380780E0480780E45807F9
:1006D00028F5E0E0F0E022C0E038F1056CF5E158E3
:1006E000FF4FDA01C9018F779070A070B07080342D
:1006F0009105A105B10539F427FF09C0205C3F4FE2
:100700004F4F5F4F04C0215C3F4F4F4F5F4F57FF2C
:1007100005C05695479537952795319687E05695AC
:100720004795379527958A95D1F70BC0E0E0F0E023
:1007300005C0E0E0F0E005C0EFEFF0E020E030E0E1
:10074000A9018E2F879588278795942F9F77679586
:1007500066276795E695E22EA92FA82BFE2FF62B8C
:10076000622F732F8A2F9F2FCDB7DEB7E6E00C9450
:10077000CA04DC01FB012C9111963C911197129651
:100780008C911297482F4F7750E0982F991F9927F7
:10079000991F13966C911397862F880F892B90E0E1
:1007A000661F6627661F6183009739F5211531059D
:1007B0004105510511F482E029C082E89FEF93833F
:1007C000828367E0220F331F441F551F6A95D1F7BC
:1007D00083E0808309C0220F331F441F551F82818D
:1007E0009381019793838283203080E0380780E0F3
:1007F000480780E4580778F320C08F3F910579F4CB
:10080000211531054105510519F484E080830895CF
:1008100044FF03C081E0808310C010820EC08F5758
:1008200090409383828383E0808387E0220F331F8D
:10083000441F551F8A95D1F750642483358346831E
:1008400057830895FC01DB019081923008F449C080
:100850008C91823008F445C0943051F46181843029
:10086000B1F511962C91119730E0261B310941C04A
:10087000843021F0923041F48230B1F111968C91A4
:1008800011978823A1F12DC06181823001F1119669
:100890008C9111976817D9F42281338112968D912A
:1008A0009C9113978217930794F028173907BCF08F
:1008B000248135814681578114968D919D910D90AB
:1008C000BC91A02D82179307A407B50718F46623DF
:1008D00041F00DC0281739074A075B0728F4662343
:1008E00031F021E030E005C020E030E002C02FEF21
:1008F0003FEFC901089597FB092E07260AD077FD1F
:1009000004D00CD006D000201AF4709561957F4F6A
:100910000895F6F7909581959F4F0895AA1BBB1BEC
:1009200051E107C0AA1FBB1FA617B70710F0A61BEF
:10093000B70B881F991F5A95A9F780959095BC0110
:10094000CD0108952F923F924F925F926F927F92C6
:100950008F929F92AF92BF92CF92DF92EF92FF92CF
:100960000F931F93CF93DF93CDB7DEB7CA1BDB0B7B
:100970000FB6F894DEBF0FBECDBF09942A88398820
:1009800048885F846E847D848C849B84AA84B98427
:10099000C884DF80EE80FD800C811B81AA81B98133
:1009A000CE0FD11D0FB6F894DEBF0FBECDBFED0147
:1009B0000895AF92BF92CF92DF92EF92FF920F9382
:1009C0001F93CF93DF93EC01688179818A819B81AA
:1009D000611571058105910521F464E279ED8BE5DE
:1009E00097E02DE133EF41E050E00E945605790198
:1009F0008A0127EA31E440E050E00E9437055B01BC
:100A00006C01C801B7012CEE34EF4FEF5FEF0E948D
:100A100037056A0D7B1D8C1D9D1D97FF04C061501D
:100A2000704080409048688379838A839B837F7776
:100A3000CB01DF91CF911F910F91FF90EF90DF904D
:100A4000CF90BF90AF9008950E94D90408958FE091
:100A500092E00E94D9040895A0E0B0E080930F02D4
:100A600090931002A0931102B09312020895629F16
:100A7000D001739FF001829FE00DF11D649FE00D96
:100A8000F11D929FF00D839FF00D749FF00D659FF7
:100A9000F00D9927729FB00DE11DF91F639FB00DF6
:100AA000E11DF91FBD01CF011124089597FB092E07
:100AB00005260ED057FD04D014D00AD0001C38F4FF
:100AC00050954095309521953F4F4F4F5F4F08957A
:100AD000F6F790958095709561957F4F8F4F9F4F5A
:100AE0000895A1E21A2EAA1BBB1BFD010DC0AA1F6F
:100AF000BB1FEE1FFF1FA217B307E407F50720F087
:100B0000A21BB30BE40BF50B661F771F881F991F01
:100B10001A9469F760957095809590959B01AC014A
:0A0B2000BD01CF010895F894FFCF46
:100B2A003F065B4F666D7D077F6700080402010080
:100B3A000102020303030304040404040404040575
:100B4A00050505050505050505050505050505064A
:100B5A00060606060606060606060606060606062B
:100B6A00060606060606060606060606060606071A
:100B7A0007070707070707070707070707070707FB
:100B8A0007070707070707070707070707070707EB
:100B9A0007070707070707070707070707070707DB
:100BAA0007070707070707070707070707070708CA
:100BBA0008080808080808080808080808080808AB
:100BCA00080808080808080808080808080808089B
:100BDA00080808080808080808080808080808088B
:100BEA00080808080808080808080808080808087B
:100BFA00080808080808080808080808080808086B
:100C0A00080808080808080808080808080808085A
:100C1A00080808080808080808080808080808084A
:100C2A000808080808080808080808080808080141
:040C3A0000000000B6
:00000001FF
